:020000040800F2
:10400000300F0020EDAA00088D4100087D41000816
:104010008141000885410008894100080000000036
:1040200000000000000000000000000091410008B6
:104030009541000800000000994100089D410008DA
:1040400035AB000835AB000835AB000835AB0008D0
:1040500035AB000835AB000835AB000835AB0008C0
:1040600035AB000835AB000835AB000835AB0008B0
:1040700035AB000835AB000835AB000835AB0008A0
:1040800035AB000835AB000835AB000835AB000890
:1040900035AB000835AB000835AB000835AB000880
:1040A00035AB0008A941000835AB000835AB000866
:1040B00035AB000835AB000835AB000835AB000860
:1040C00035AB000835AB000835AB000835AB000850
:1040D00035AB000835AB000835AB000835AB000840
:1040E00035AB000835AB000835AB00080000000018
:1040F00000000000000000000000000000000000C0
:1041000000000000000000005FF808F130B40B4B25
:10411000054618682C4644F8040B988800222B4664
:1041200013F8011B0A44A34292B2F9D1904202D083
:1041300000232B806B8030BC704700BF00BC01089F
:1041400038B50546044606F031FA0A4806F06EFA1C
:1041500055F8041B074806F08BFA002114F8013BC0
:104160001944AC4289B2F9D10348BDE8384006F0A1
:10417000AFBA00BF00BC010804BC0108FEE700BFE5
:10418000FEE700BFFEE700BFFEE700BF704700BFCD
:10419000704700BF704700BF704700BF014801F083
:1041A00087BC00BF3C0F0020F8B57448012106F021
:1041B0008DFC00B9F8BD7148012106F093FC704BED
:1041C0001A79002A40F090806E4C6F4E94F870116E
:1041D00000296AD16D4A37881188C7F5FF4EC1F5AD
:1041E000FF450EF17F0E7F351FFA8EFEADB2684897
:1041F0004FF6FF72B0F900C0B0F90200E64428445F
:10420000644D9645A8BF96469042B8BF02462EEA36
:10421000EE7E22EAE2722846A4F85671A3F800E086
:104220005A80A4F8581102F095FF2B78DF0755D477
:10423000C10702D540F00200C0B2DA0648D4C30676
:1042400002D540F02000C0B294F8212094F820302C
:10425000002A94F85A210CBF00211021D70728709A
:1042600041EA03032FD4DD0701D543F00203D10651
:1042700024D4DA0601D543F02003474A1843474FB8
:10428000556DC1B284F85A313970906D002D46D009
:10429000C70741D54010135810445D59A8473080D6
:1042A0003748BDE8F84002F0FBBE384847F6FF75D6
:1042B0001146328002801746AE4698E7DA06DCD413
:1042C00043F04003D9E7D907D1D443F00403CEE744
:1042D000C706B9D440F04000C0B2B5E7C207ACD4BD
:1042E00040F00400C0B2A8E72C4A2B4B1178D3F859
:1042F000342A0909D3F8384A3AB3E00720D5284BC5
:104300006410E558E018AA589047204B18801C48C4
:10431000BDE8F84002F0C4BE02EB6000BEE7C30790
:10432000B8D45069431C03F00F035361936B1154CD
:1043300002EB4301013303F00F03088B9363AEE7F5
:1043400003F51E6303EB6400DEE7E507D7D4D3F87B
:10435000F409421C02F00F02C3F8F429D3F8182A1A
:104360001C1803EB4200013202F00F02B0F8F8090A
:1043700084F8E019C3F8182AC7E700BF002C0140F1
:10438000340F00203C0F0020BC100020BE10002085
:10439000B8100020C4100020C8100020300F0020EA
:1043A000A81A0020F8B5134E012240F2ED21304644
:1043B00002F0E6FF104B0027104C11481F60114D12
:1043C00002F0A2FE104802F021FE2046FFF79EFEFA
:1043D0003946284601F0BCF905F51E60012101F0BF
:1043E000B7F92146094802F0B3F83046BDE8F84075
:1043F00003F016B8C010002088240020B810002058
:10440000C4100020C8100020340F00203C0F0020F2
:1044100008B5FFF7C7FF244C04F51E65234802F0DA
:10442000F7FC224802F01AFDE36D1F4A7BB3A26B32
:10443000E16B013A521A02F00F02072A1A4805D915
:10444000026ED10719D400EB62009847D4F83C3AC9
:10445000154A23B3D4F8182AD4F81C1A013A521A70
:1044600002F00F02072A1049D8D9D1F8400AC20732
:1044700008D405EB60009847D0E75210115810445B
:10448000CB58E2E740102A582844D358F3E7126E7D
:10449000D007CCD4D4F83C3A034A002BDAD1D2F876
:1044A000402AD107BAD5D5E7C81000203C0F00201C
:1044B000012A2DE9F00137D0B1F80480B1F800C02D
:1044C0004F88CE880023022101224FEA6808032486
:1044D00047F6FF75A0F87080A0F87CC0A0F87E7049
:1044E000A0F88060A0F8A440A0F8A61080F88C1076
:1044F000A0F86C30A0F87230A0F8AA30A0F8A8306C
:10450000A0F86E5080F88D2080F88E20B0F994309D
:10451000A34206DD0023A0F89430C0F89C30A0F838
:104520009830BDE8F00170470E884D8800230224C2
:1045300047F6FF71A0F87C60A0F87E5080F88D20CF
:10454000A0F8A44080F88C40A0F8A630A0F86C3009
:10455000A0F87030A0F8AA30A0F8A830A0F86E102B
:10456000D4E700BF012A30B430D0CB884C88C3F5E3
:104570007F43FF3303FB03F504FB04F48A882D0C0F
:10458000098802FB02F203FB05F3240CA1F50041AC
:1045900004FB04F409B2C1EBC101920C9B0C09129B
:1045A00002EB4202240E0125C3F5FF4301F57861B9
:1045B00002F50072C0F8FC4180F8F451C0F8141202
:1045C000A0F8F831C0F8182230BC70474B88098831
:1045D000C3F57F43FF3303FB03F4491001F500519A
:1045E000240C01FB01F103FB04F3890C01EB4101F5
:1045F0009B0C4FF47865232401F50071C3F5FF434C
:10460000C0F81452C0F8FC41C0F8181280F8F42128
:10461000A0F8F83130BC7047012A30B40B8831D093
:10462000C3F5FF437F339B1190F8DC22C3F552534F
:104630009BB22ABBB0F8DE525D1B18BF0125A0F863
:10464000DE320A8840F6FF74A0F83023A0F8322347
:104650004B8880F8DC52A0F83433A0F836338A88CF
:10466000DB12A0F82823CA8803F6E173B3F5805F54
:1046700008BF2346C0F80033A0F82A2330BC704797
:104680000125DCE7C3F5FF437F339B1190F8DC4243
:10469000C3F552539BB2D4B1A0F8DE320B8840F67A
:1046A000FF74A0F83033A0F832334B8880F8DC2256
:1046B000DA1202F6E172B2F5805F08BF2246A0F876
:1046C0003433A0F83633C0F8002330BC7047B0F85C
:1046D000DE229A1A18BF0122DEE700BF012A0FD09E
:1046E0000B88A0F864334B885B10A0F866338B8886
:1046F0005B10A0F86833CB885B13A0F86A3370476F
:104700000023A0F864330B885B10A0F866330B8895
:104710005B1003F50063A0F868334B885B13A0F8C7
:104720006A337047084B10B440F6FF71282400220A
:10473000C0F8BC44C0F8C434C0F8C014C0F8C824E1
:104740005DF8044B704700BF00C0FF3FD0F8CC2499
:104750008907D0F8C834D0F8BC1456BF1346D0F837
:10476000C424D0F8D024C1EB030348BFC0F8D02440
:104770009A18C0F8CC3412D41049C0F8D0248A4218
:1047800018DDD0F8C0241B135B4202FB03F2C0F813
:10479000D014C0F8CC2447F6FF7000B27047D0F8B0
:1047A000C0241B135B4202FB03F30022C0F8CC348D
:1047B000C0F8D024C2F3CF3000B270470080FF3F72
:1047C000012A70B4264A0C884B8826D02512961CE4
:1047D000C3F57F4332F8152036F81550FF33AD1A74
:1047E000E4B203FB03F304FB05F4CD881B0D8988B9
:1047F000A5F5004502EB2422C3F57F632DB22D0100
:1048000092B20F338903C0F8C854C0F8BC24C0F872
:10481000C034C0F8C41470BC70472112951CC3F595
:104820007F4332F8112035F81110FF33891A03FB4A
:1048300003F3E4B204FB01F41B0D02EB2422094D47
:10484000C3F57F630F3392B20021C0F8C454C0F89F
:10485000C034C0F8BC24C0F8C81470BC704700BF96
:10486000D465010800C0FF3F10B400F2D64200F248
:10487000DE44002322F8023B9442FAD1042280F85D
:10488000D53480F8DE3480F8D4245DF8044B7047CA
:104890008A0790F8D53406D5013390F8DE24DBB2D0
:1048A00080F8D534B2B990F8D424022A04D9890604
:1048B00044BF012180F8DE149A429CBF002380F897
:1048C000D53400EB4300B0F9D60400EB800040F390
:1048D000CF007047002380F8DE3480F8D534E2E75B
:1048E0000B88012A4FEA930210B4A2F5C044A0F845
:1048F000E0441FD01C044ABF5A1002F5C04202F522
:10490000804292B2A0F8E2244B885DF8044BA0F8F4
:10491000E434CB888A8803EB4301C3EB4133D210E4
:104920001B0C02F5807203F50053C0F8EC24C0F8AC
:10493000E83470471C044ABF5A1002F5C04202F521
:10494000804292B2A0F8E22449884FF4885244F69B
:10495000FF73A0F8E414C0F8EC24C0F8E8345DF864
:10496000044B70470B88012AA0F85C354B88A0F8EF
:104970005E351FBF8B88A0F86035CB88A0F8623504
:10498000704700BF012A2DE9F0013DD0B1F8048045
:104990000E88B1F802C0CF880023022247F6FF74C8
:1049A00001214FEA68080425A0F87485A0F8806505
:1049B000A0F882C5A0F88465A0F88675A0F8A8556F
:1049C000A0F8AA2580F8902580F89225A0F87035E7
:1049D000A0F87835A0F8AE35A0F8AC35A0F872454F
:1049E000A0F8764580F8911580F89315B0F99835C0
:1049F000AB4206DD0023A0F89835C0F8A035A0F83A
:104A00009C35BDE8F00170470C88498800230225D9
:104A100047F6FF72A0F88045A0F88215A0F8A855C7
:104A2000A0F8AA35A0F87035A0F8743580F8903554
:104A300080F89135A0F8AE35A0F8AC35A0F8722515
:104A4000D4E700BF012AF0B434D0B1F804C00F8815
:104A50004E88CD880023022203214FEA6C0C47F6D2
:104A6000FF74A0F8B8C5A0F8C475A0F8C665A0F892
:104A7000C855A0F8EC15A0F8F215A0F8EE35A0F88E
:104A8000B435A0F8BA35A0F8F035A0F8B64580F8EE
:104A9000D42580F8D52580F8D625B0F9DC358B42B1
:104AA00006DD0023A0F8DC35C0F8E435A0F8E035D9
:104AB000F0BC70470D884C880023022147F6FF7236
:104AC000A0F8C455A0F8C645A0F8EC1580F8D41598
:104AD00080F8D515A0F8F215A0F8EE35A0F8B43599
:104AE000A0F8B835A0F8F035A0F8B625D5E700BF96
:104AF000012A2DE9F00137D0B1F80480B1F800C0E7
:104B00004F88CE88002302224FEA6808032147F627
:104B1000FF750124A0F8FC85A0F808C6A0F80A7665
:104B2000A0F80C66A0F83016A0F83236A0F8F835D8
:104B3000A0F8FE35A0F83436A0F8FA5580F818260B
:104B400080F81926A0F8362680F81A46B0F92036E3
:104B50008B4206DD0023A0F82036C0F82836A0F8E6
:104B60002436BDE8F00170470D884C8800230221EF
:104B700047F6FF72A0F80856A0F80A46A0F83016CB
:104B800080F8181680F81916A0F83616A0F83236F4
:104B9000A0F8F835A0F8FC35A0F83436A0F8FA25CE
:104BA000D4E700BF012AF0B43AD00D884C88B1F8A0
:104BB00004C0CF880023022147F6FF720126A0F827
:104BC0005C56A0F89EC6A0F8A076A0F85E46A0F8B5
:104BD0006C56A0F86E46A0F8941680F87C16A0F8E3
:104BE0009636A0F84C36A0F85036A0F83C36A0F81F
:104BF0004036A0F89A36A0F89836A0F84E26A0F8CD
:104C00003E2680F87D66B0F98436022B06DD00234F
:104C1000A0F88436C0F88C36A0F88836F0BC70470F
:104C20000E884D880023022447F6FF71A0F85C66C9
:104C3000A0F85E56A0F86C66A0F86E5680F87D2647
:104C4000A0F8944680F87C46A0F89636A0F84C363A
:104C5000A0F85036A0F83C36A0F84036A0F89836B8
:104C6000A0F89A36A0F84E16A0F83E16CBE700BF83
:104C70000023A0F81037A0F81237012A30B44B886F
:104C80002ED0C3F57F43FF3303FB03F4240C03FB57
:104C900004F30A889B0CC3F5FF43A0F8E4365310D5
:104CA00003F500534A8803FB03F3A0F814278A880E
:104CB0009B0CA0F80C27CD8803EB43034FF47864DA
:104CC00003F5007323210122A0F80E57C0F8004716
:104CD000C0F80437C0F8E81680F8E02630BC70470A
:104CE000C3F57F43FF3303FB03F50C882D0C03FB57
:104CF00005F3641004F5005404FB04F49B0CC3F5A5
:104D0000FF43A0F8E436A30C4D8803EB43034FF4B4
:104D1000786403F500732321A0F81457C0F8004706
:104D2000C0F8043780F8E026C0F8E81630BC7047B9
:104D3000104970B40B68104C104A012504FB032283
:104D40000826002302EA0504A0F8E867A0F8EC575B
:104D500080F8F4470A60C0F8F027A0F8EA37A0F816
:104D6000EE3780F8F537A0F8FC3780F8FE3770BCD6
:104D7000704700BF2C0D00200D6619005FF36E3CDC
:104D80008B0730B46AD590F8FE37B0F8EC270133C2
:104D9000DBB29A4280F8FE3760D8D0F8F017B0F84E
:104DA000E83701F0010200241F2B80F8F42780F877
:104DB000FE4705D821FA03F404F0010480F8F54712
:104DC0004908C0F8F017002A4DD15A1E0125954018
:104DD0001F2B21EA0501C0F8F0174DD890F8F527F0
:104DE000002A5CD041F0004121FA03F202F00102F6
:104DF00001F0010480F8F5274A0880F8F447C0F86C
:104E0000F027002C41D02A43C0F8F0271F2B07D8E9
:104E100090F8F537002B3DD042F00042C0F8F02763
:104E20002049214D0C68214B05FB04F4B0F8EA57EA
:104E30002344B5EB134F0B60B0F8EE3784BF82F01C
:104E40000102C0F8F0279B12D2B202FB03F330BC80
:104E5000C0F8F827A0F8FC3718B27047B0F8FC3754
:104E600030BC18B270475A1E012595401F2B45EAE9
:104E70000101C0F8F017B1D901F001044A0880F827
:104E8000F447C0F8F027002CBDD122EA0502C0F893
:104E9000F027BBE722F00042C0F8F027C0E721F07E
:104EA0000041A1E72C0D00200D6619005FF36E3C58
:104EB00010B400F6020200F61204002322F8023BAE
:104EC0009442FAD1082280F8013880F8123880F82C
:104ED00000285DF8044B70478A0790F8013806D522
:104EE000013390F81228DBB280F8013892B990F8BB
:104EF0000028042A04D9890644BF012180F8121829
:104F00009A429CBF002380F8013800EB4300B0F9BF
:104F100002087047002380F8123880F80138E6E76D
:104F2000012A0B882AD0A3F50043A0F802384B8849
:104F30000822A3F50043A0F804388B88A3F50043AA
:104F4000A0F80638CB88A3F50043A0F808380B88F2
:104F5000C3F50043A0F80A384B88C3F50043A0F816
:104F60000C388B88C3F50043A0F80E38CB8880F846
:104F70000028C3F50043A0F810387047A3F500439C
:104F8000A0F802384B880422A3F50043A0F80438A7
:104F90000B88C3F50043A0F806384B8880F800283A
:104FA000C3F50043A0F80838704700BF70B5012A68
:104FB00000F6BC0604460D463046098810D003F0C2
:104FC00051FE3046698803F03BFEAB8847F6FF721E
:104FD000A4F8CC38EB88C4F8C828A4F8CE3870BD43
:104FE00003F040FE3046698803F02AFE47F6FF735F
:104FF000C4F8C83870BD00BF014601F1180200F6C0
:10500000BC0003F04BBE00BF00F6BC0003F0E6BDE1
:1050100038B50B880446A4F86838012A0D4600F616
:10502000680049881FD003F0D3FCAB8847F6FF71B6
:10503000A4F87838EB880022C4F874181904C4F86E
:10504000702808D4C3F5FF437F335B00A4F87A3897
:10505000A4F87C2838BD5B0043F6FF72A4F87A38C8
:10506000A4F87C2838BD03F0B3FC002247F6FF7398
:10507000C4F87028C4F8743838BD00BF014601F187
:10508000180200F6680003F037BD00BF00F66800A4
:1050900003F08EBC012A38B504460D4600F6140014
:1050A00021D00A8847F6FF73A4F814284988C4F869
:1050B000203803F06BFBAB88A4F82C38EB881A047B
:1050C00009D4C3F5FF437F335B000022A4F82E38D8
:1050D000A4F8302838BD5B0043F6FF72A4F82E38E0
:1050E000A4F8302838BD0B88A4F81438498803F098
:1050F0004DFB002247F6FF73C4F81C28C4F8203883
:1051000038BD00BF014601F1180200F6140003F09B
:10511000D3BB00BF00F6140003F028BB00F21C70E4
:1051200012F0AABD00F21C7002F04EBC00F2A460A6
:1051300012F0D2BD00F2A46002F0C8B900F23C60E7
:1051400004F0CCB900F23C6004F09AB900F2B4501B
:1051500004F0F6B800F2B45003F0FCBF00F5BF60F5
:1051600004F01CB800F5BF6004F0C4B800F5AE60F0
:1051700003F050BF00F5AE6003F022BF014601F11D
:10518000180200F25C5004F093BA00BF00F25C50C9
:1051900004F084BA014601F1180200F59C6004F0A5
:1051A000DDBB00BF00F59C6004F0B0BB014601F11F
:1051B000180200F58E6004F0FDBD00BF00F58E60A2
:1051C00004F0E0BD014601F1180200F5597004F049
:1051D000D5BE00BF00F5597004F0BCBE012A0B46D5
:1051E00049D00A88B2F5804F32D9B2F5004F9ABF44
:1051F0001111C1F500610021A0F83E1302EBC202BB
:10520000920902F54062A0F840235A88921002EBFE
:105210004202C2F38D02A0F842239A8851109210E4
:1052200002F5005201F58041A0F84623A0F844138E
:10523000DB881A0411D4C3F5FF437F3303FB03F368
:105240000022C3F38F33A0F84823A0F84A337047F5
:105250004FF48061A0F83E13D0E7A3F5004303FBB1
:1052600003F3C3F34D4303EB8303A0F84833002358
:10527000A0F84A33704700F54F7009885A8802F049
:105280006FB900BF014601F1180200F54F7002F03E
:10529000EDB900BF00F54F7002F05AB900F5377054
:1052A00012F002BD00F5377002F01EBB00F5087069
:1052B00012F00ABD00F5087002F02CBB00F5DC709E
:1052C00012F0FABC00F5DC7002F0C4B8012A10B587
:1052D00090F8C03004462FD0C3B90B884FF4A042D9
:1052E000A0F8B03088884B88A0F50040A4F8B4003E
:1052F000C98803EB8303A1F5004109041B14C4F81A
:10530000B81084F8B230C4F8BC2010BD8A884B882D
:10531000A2F500420888A4F8B420CA8803EB8303EE
:10532000A2F50042411012041B14C4F8BC10C4F8CA
:10533000B82084F8B23010BD93B10B884A8803EBD3
:1053400083031B14A2F5004280F8B230A0F8B42009
:1053500000224FF4A043C4F8B820C4F8BC3010BDFC
:105360000B8820F8B03F498803F020F9F0E700BF30
:10537000014601F11802B03003F02AB9B03003F051
:10538000E9B800BF6C3003F07BBD00BF6C3003F0A8
:1053900051BD00BF012A0B8816D0A3F50043A0F829
:1053A000D6344B880422A3F50043A0F8D8348B8868
:1053B000A3F50043A0F8DA34CB8880F8D424A3F511
:1053C0000043A0F8DC347047A3F50043A0F8D634BE
:1053D0004B880222A3F5004380F8D424A0F8D834E7
:1053E000704700BF012A0B8831D0B3F5784F2CBF2E
:1053F0004FF6FF73DB10A0F8EA374B8842F2914278
:10540000A0F8EE378B88934218D944F623129342C2
:105410002DD946F6B552934225D949F248229342F6
:1054200029D94BF2E562934229D94DF66C32934269
:1054300094BF1C232023A0F8E83702E00823A0F83B
:10544000E837CB885B130133A0F8EC377047B3F52E
:10545000784F2CBF4FF6FF73DB10A0F8EA374B886C
:10546000A0F8EE3770471023A0F8E837E9E70C23DF
:10547000A0F8E837E5E71423A0F8E837E1E71823B8
:10548000A0F8E837DDE700BF012A0DD00B88A0F8AF
:1054900072344B88A0F870348B885B10A0F8743499
:1054A000CB88A0F8763470474FF6FF73A0F87234BB
:1054B0000B880022A0F870344B88A0F876245B108B
:1054C000A0F87434704700BF012A70B453D00B8821
:1054D00090F8B022A3F500431BB2C3EBC303C3F3A0
:1054E0000F2303F5D05503F5005403F54853A0F8F6
:1054F0007252A0F892429BB2002A3AD1B0F8B2524E
:105500005D1B18BF0125A0F8B2328C884B88640857
:10551000B4F5E04F38BF04F500744FEAA303C3F5B8
:10552000AB4234BFA4B24FF4E4447032A0F8D84286
:1055300003F5AB43C0F8D022CA887033C0F8D43228
:105540005309941303F5E24203F5CF43012104F616
:10555000FC744832043380F8B052C0F86042A0F8BE
:105560007422A0F8943280F8701280F8901270BC07
:1055700070470125C7E790F8B0324FF4D0554FF48B
:105580000054A0F87252A0F892422BB9B0F9B2229E
:10559000B2F5485218BF01224FF4485547F248541B
:1055A00046F68433A0F87442A0F8B252A0F89432C0
:1055B0004D880B886D08B5F5E04F4FEAA30338BF5F
:1055C00005F50075C3F5AB4103F5AB434FF001049E
:1055D00040F6FE7634BFADB24FF4E445703170331F
:1055E00080F8704280F89042C0F86062A0F8D8520B
:1055F00080F8B022C0F8D012C0F8D43270BC704726
:10560000012A70B40B8855D0A3F500431BB2C3EB3D
:10561000C303C3F30F2390F8AC2703F5D05503F56C
:10562000005403F54853A0F86E57A0F88E479BB27C
:10563000002A3DD1B0F8AE575D1B18BF0125A0F878
:10564000AE370B8843F2F054A3F500439BB2A0F8A9
:10565000E037A0F8E2374B8847F2F0525B08B3F529
:10566000E04F3ABF03F500739BB24FF4E443C0F838
:10567000CC47C0F8D02747F2485446F68432A0F809
:10568000D437A0F87047A0F890278A880123A0F8A3
:10569000D627C98840F6FE7280F8AC57A0F8D81714
:1056A00080F86C3780F88C37C0F85C2770BC704786
:1056B0000125C4E7A3F500431BB2C3EBC303C3F347
:1056C0000F2390F8AC4703F5D05603F5005503F5CA
:1056D0004853A0F86E67A0F88E579BB224B9B0F873
:1056E000AE279A1A18BF0122A0F8AE370B8847F2EE
:1056F0004855A3F500439BB246F68434A0F8E03742
:10570000A0F8E237A0F87057A0F890474988012325
:10571000D940B1F5E04F38BF01F5007140F6FE7693
:1057200043F2F05547F2F05434BF89B24FF4E441EC
:10573000C0F85C67C0F8CC57C0F8D04780F8AC27F9
:1057400080F86C3780F88C37A0F8D41770BC70479D
:10575000F8B500234361044603610F46C36308257F
:105760008363E36B0022591C01F00F0104EB430338
:105770001A83E1636369013D591C01F00F01ADB269
:10578000E2546161002DECD17C4E07E0EB5804EB54
:10579000600020359847B5F5507F0ED073195868D2
:1057A000764BC207F2D54010EB58225820352044E2
:1057B000D3589847B5F5507FF0D104F5DC7001F06F
:1057C00049FE7D1E6F4204F508706F4102F0A2F899
:1057D00004F5377002F088F804F54F7084F83873D8
:1057E00001F0B6FE664840F6FF7200232821C4F897
:1057F000C024C4F8C834C4F8BC14C4F8C40484F881
:105800003C7304F1B00002F0A5FE04F16C0003F05B
:1058100011FB04F5597004F09DFB04F58E6004F053
:10582000B1FA04F2D64304F2DE42002523F8025B0B
:105830009A42FAD1042384F8D43404F59C6084F8A5
:10584000D55484F8DE5404F061F884F8187504F235
:105850005C5003F023FF4B4A4B4811684B4B00FB55
:1058600001F10B4403F0010701210820A4F8EC1713
:10587000C4F8F037A4F8E807A4F8EA5704F5AE60D6
:10588000A4F8EE5784F8F557A4F8FC5784F8FE57AF
:1058900084F8F477136003F093FB04F2B45003F040
:1058A00059FC04F5BF6003F025FD04F23C6003F0F1
:1058B000E7FD04F2A46001F009FE04F21C7002F09E
:1058C00083F804F6020204F61201002322F8023BD8
:1058D00091421D46F9D1082284F8013884F8123823
:1058E00084F8002804F6140002F040FF234F04F669
:1058F000680003F05DF804F14C0604F6BC0003F008
:105900006DF90FCF84F8405084F8415084F8C050AE
:1059100084F8425884F88E5884F8DC580FC697E80B
:105920000F0086E80F00206DC10719D4E36C04EB6B
:1059300060009847A36EDA071BD55B10E158626ED2
:10594000E0188E5804F1420594F840202946B047EB
:105950004A344FF4004325F8023BAC42F9D1F8BD7C
:1059600040102258E36C2044D3589847A36EDA07BE
:10597000E3D404EB6300666EE4E700BF98AC000874
:1059800000C0FF3F2C0D00200D6619005FF36E3C38
:105990002DE9F047064696F8411190F8400196F837
:1059A0004231082286F8441186F8430186F84531D1
:1059B00006F5AE711AB106F5A37005F0BDF8B6F89C
:1059C0005491344C09EB89094FEA8909324A4C4415
:1059D0000023944286F84F3186F8503186F85131D1
:1059E00086F8523106F2431536D9A6F8543104F040
:1059F000DDFD2A4C204604F019FE294B04F5806495
:105A00009C42F7D1274FDFF8A480DFF890A05446DE
:105A1000C4EB05090AF1100A204659F804100434B1
:105A200004F026FE5445F7D106F25312002115F872
:105A3000013B1944954289B2F9D1384604F048FE39
:105A40004046B6F8541104F043FEB6F85431013321
:105A5000A6F85431BDE8F08704F0A8FD124B24F4F9
:105A60007F704B4423F47F7320F0030023F0030383
:105A700009F1006A83420AF5E03ADFF83080094F05
:105A800004D004F0D3FDC8444F44C0E7C8444F4499
:105A9000BDE700BF14C00108FFFF010800C00108F6
:105AA0000000020810C00108FFBF010812C0010871
:105AB0002DE9F04FDFF8109300F59A78D9F800300F
:105AC0000446013383B04046C9F8003001F026FC9B
:105AD0002646002518F8017B802F30D0002F4AD1B0
:105AE00033691BB1EAB2012A40F2B1800135042DBD
:105AF00006F10406EED194F87031002B40F0958049
:105B000094F84031D9F80020022BC2F3C212AE49FA
:105B10004FD0032B40F0CE80012A02D0D61E724215
:105B20007241D9F8001084F83121CD0540F1CC80C4
:105B300094F84221032A67D894F841114BE0D4F835
:105B40002C3104F12801581C01EBC30200274FF04F
:105B5000040E00F01F0001F833E055805760C4F8D0
:105B60002C01D9F80030D9F800206362326118F8AE
:105B7000017C002FB4D07F2FB8D13369002BB5D072
:105B8000D9F80010D4F82C21013104F12800571C59
:105B9000CB1A4FF0040E00EBC20107F01F0700F80C
:105BA00032E04B604D80C4F82C71D9F8003063624C
:105BB0009CE7571E7A4209687A4184F83121CA0568
:105BC00040F1878094F8411103291ED8032B0CBFA4
:105BD00094F842210A46043A122A00F2B981DFE819
:105BE00012F09C01940180018801840190018801D8
:105BF000780198018C01940190017C018C01840151
:105C0000A00180017C01780111460439122900F2BB
:105C10005581DFE801F0969696969662626262621E
:105C2000A2A2A2A2A2A29C9C9C0000230F2101225E
:105C300084F8301184F8312184F8323184F833311A
:105C400004F5987001F0FEFA03B0BDE8F08FD9F8C2
:105C500000005D49C31AB3F5167F7FF747AFC2F165
:105C60000102D2B2224492F834216AB994F85B312D
:105C700067610133DBB2032B276184F85B3100F0ED
:105C8000A98018F8017C76E7D4F82C2104F1280EBD
:105C900002F1010C0EEBC2004FF0040A0CF01F0CD5
:105CA0000EF832A043604580C4F82CC10B686362D3
:105CB0003761E6E70A6803F00101D00584F8311185
:105CC00080D494F8411181E794F8411194F842216D
:105CD00081E794F841110A467DE7022394F84111C7
:105CE00084F830312346002201AD0139C9B21529AB
:105CF00039D8012000FA01F147F603700840002866
:105D00003CD132480840002855D189032BD5B3F83F
:105D100056114911A954023362B32D4B93F8412017
:105D20000A2A38D09DF804209DF8053084F83221E5
:105D300084F8333104F5987001F084FA03B0BDE8BB
:105D4000F08F012384F8303194F84111CAE7082319
:105D500084F8303194F84111C4E7042394F84111D8
:105D600084F83031BEE7B3F956110233C911A95492
:105D7000002AD2D194F842110122B6E7B3F95611A4
:105D800040F2991000FB01F1091201F50041A1F365
:105D90000821A954BFE793F8D01E93F8F0244A4095
:105DA00084F8302193F8192593F8F93E52425B426A
:105DB000D2B2DBB2BAE7B3F956110029B8BF4942F3
:105DC0000912A954A7E700BF882400200400380066
:105DD000C8100020DFF894A1DFF898C10AF14C0E3A
:105DE000BCE80F00AEE80F009CE80F00DAF850C0E6
:105DF0004FF00A0B1CF0010F84F85B718AF8C07039
:105E00008AF842788AF88E788AF8DC788AF841B085
:105E10008EE80F0058D04FEA6C0050F80A20DAF8EC
:105E20004C305044D3589847DAF868204F4BD0078D
:105E300040F185805210D758596ED0187B58DFF842
:105E40002CB19AF840200BF142019847DFF824E189
:105E50000BF62C27BEE80F000FC79EE80F00DAF8FC
:105E600030EA87E80F001EF0010F4FF000034FF0FB
:105E70000A0287F8E6378AF8A03A87F8323887F8B6
:105E800080388AF8212A50D10BF51E67DBF82C3AAE
:105E900007EB6E009847DAF8483A344AD90752D5EA
:105EA0005B10D2F8442AF958F81851F802C09AF851
:105EB000202A2F49E04718F8017C5CE6102384F87B
:105EC000303194F841110DE70AEB6C00DAF84C30F0
:105ED000A9E70A2384F8303104E70C2384F8303131
:105EE00000E7092384F83031FCE60D2384F83031D3
:105EF000F8E6072384F83031F4E60E2384F83031D5
:105F0000F0E6062384F83031ECE6052384F83031DE
:105F1000E8E60B2384F83031E4E6032384F83031DB
:105F2000E0E60F2384F83031DCE64FEA6E000BF533
:105F30001E673A58DBF82C3A3844D358AAE703EBEB
:105F400062005B6E7BE7D2F844CA07EB6300AEE702
:105F5000032B0CBF94F842310B4603F003030122DC
:105F600002FA03F384F83031BCE600BFC810002009
:105F7000EA1A0020D8AD000870B590F840510646E6
:105F8000012D43D015B33F4C0023A06E84F8403060
:105F9000C1072DD540100259636E2044D35800220A
:105FA00039499847D4F8480A0023C20784F8203AB0
:105FB000344B21D503F51E6240108158D3F8443A82
:105FC0001044CB5800223149984770BD2E483146C5
:105FD000A0F14204082204F0AFFD314604F622206D
:105FE000082204F0A9FDA06E84F84050C507D1D462
:105FF00004EB6000636ED2E703F51E6202EB600003
:10600000D3F8443A21490022984770BD3146042212
:106010001D4804F091FD311D0836761A721003D028
:1060200052001A4804F088FD164C0123A06E84F833
:106030004030C3071BD540100259636E2044D3582B
:10604000012211499847D4F8482A0123D60784F839
:10605000203A0C4B0FD503F51E615210D3F8443A89
:1060600054585018E35809490122984770BD04EB71
:106070006000636EE4E703F51E6000EB6200D3F896
:10608000443AF0E7C81000200A110020EA1A002064
:106090002DE9F04F90F8403183B0012B06460F46B2
:1060A000144640F2C3805E4B4FF41E6505FB01357C
:1060B0005C4907EB420211F802E095F8C030BEF1EE
:1060C000020AC219DAF1000082F8414150EB0A00DD
:1060D00085F841E0CBB9C0B1C5F8903105F5A4729F
:1060E00005F1C803002143F8041B9A42FAD105F5D3
:1060F000B673002142F8041B9342FAD105F5C8712A
:10610000002243F8042B9942FAD1BEF1160CDCF1BF
:10611000000151EB0C01BEF11808D8F1000252EB5E
:10612000080295F8DC38BEF1190985F8C000D9F1EC
:10613000000085F8421885F88E2850EB0900CBB98D
:10614000C0B1C5F8AC3905F6641205F6E4030021C8
:1061500043F8041B9A42FAD105F68813002142F84D
:10616000041B9342FAD105F6AC11002243F8042B2C
:106170009942FAD12C4B05F14C0C03EB4E1885F8E3
:10618000DC08B8E80F00ACE80F0098E80F00BEF19B
:10619000020F8CE80F000AD0BEF1190F07D0286D4E
:1061A000C20700F17681EB6C05EB60009847A86EA2
:1061B000C30724D540102A586B6E2844D35805F1E4
:1061C000420195F840209847162C25D8DFE814F0B6
:1061D0008B018B018B018B017F017F017F017F018F
:1061E0007F0173017301730173017301670167011B
:1061F00067016701670167011B001B001B0005EBBE
:1062000060006B6EDBE796F84031012B8CBFF6190E
:1062100086F87A4186F8794103B0BDE8F08F00BF77
:10622000C8100020707B010898AC0008DFF81893B4
:10623000C24D19F812A095F8C030BAF1020BDBF18B
:10624000000086F8422186F8412185F841A050EBF4
:106250000B00CBB9C0B1C5F8903105F5A47105F1BB
:10626000C803002243F8042B8B42FAD103F1240126
:10627000002243F8042B8B42FAD103F124010022BF
:1062800043F8042B8B42FAD1BAF1160EDEF100016D
:1062900051EB0E01BAF1180CDCF1000252EB0C02CA
:1062A000BAF1190885F88E2895F8DC38D8F1000283
:1062B00052EB080285F8421885F8C0009F49019208
:1062C000D3B9019AC2B1C1F8AC3901F6E40301F6C1
:1062D0006411002243F8042B8B42FAD103F124010C
:1062E000002243F8042B8B42FAD103F1240100224F
:1062F00043F8042B8B42FAD1DFF85082DFF83CB22E
:1063000008EB4A1C0BF14C0EBCE80F00AEE80F0086
:106310009CE80F00DDF804C0BAF1020F85F8DCC874
:106320008EE80F000CD0BAF1190F09D0DBF850003D
:10633000C30700F1F080DBF84C300BEB60009847AE
:10634000A86E7E4BC10740F1DA804010C1585A6EEA
:1063500018448B58DFF8E4A195F840200AF1420177
:1063600009EB4409984799F801E095F8A03ABEF185
:106370000202504285F821EA5041CBB9C0B1CAF8B7
:10638000703B0AF628310AF6A823002243F8042BB2
:106390008B42FAD103F12401002243F8042B8B42F3
:1063A000FAD103F12401002243F8042B8B42FAD1E5
:1063B000BEF1160ADAF1000959EB0A09BEF1180B11
:1063C00041F2BC23DBF10001EA5C51EB0B0141F22D
:1063D0006E2341F2222CE954BEF1190305F80C900A
:1063E000D3F1000C85F8A00A5CEB030C5348E2B92A
:1063F000BCF1000F19D0524B41F28C3903F18001EE
:1064000040F80920002243F8042B8B42FAD103F113
:106410002401002243F8042B8B42FAD103F124011A
:10642000002243F8042B8B42FAD1DFF810A108EBCD
:106430004E180AF62C29B8E80F00A9E80F0098E8D2
:106440000F00BEF1020F41F2BC2889E80F0005F8E9
:1064500008C05DD0BEF1190F5AD0DAF8300AC10772
:1064600061D40AF51E68DAF82C3A08EB6000984708
:10647000D5F8480A314BC20745D5401058F80020DE
:10648000D3F8443A4044D35895F8202A2D499847E8
:106490009AE640102A58EB6C2844D35886E696F8C2
:1064A0004031012B8CBFF61986F8784186F8774188
:1064B00003B0BDE8F08F96F84031012B8CBFF61980
:1064C00086F8764186F8754103B0BDE8F08F96F8FE
:1064D0004031012B8CBFF61986F8744186F8734160
:1064E00003B0BDE8F08F96F84031012B8CBFF61950
:1064F00086F8724186F8714103B0BDE8F08F03EB76
:1065000060005B6E26E7D3F8443A08EB6000BBE717
:106510000AF51E68ACE7401050F80B20DBF84C3051
:106520005844D3580BE740100AF51E6858F800206D
:10653000DAF82C3A4044D35899E700BFC81000203D
:106540008C230020EA1A0020707B010898AC000818
:106550002DE9F84FC0F86C11074600F5987000F06F
:106560000FFE07F59A7000F0A5FE07F59C7000F08D
:10657000C3FC834A3B46116807F1080801311160EA
:10658000002223F8022B9845FAD107F1100943465F
:10659000002223F8022B9945FAD107F2651B5B46CE
:1065A00007F2691A002203F8012B5345FAD187F844
:1065B0005A2174484FF4804104F000F9D0F10100F1
:1065C00038BF0020704D87F8700107F2431640F283
:1065D000323E07F25314AC46BCE80F00B260F360E1
:1065E000306071603346002213F8011B0A44A34255
:1065F00092B2F9D12B8A698A93424BD0634B143DF6
:106600009D420EF1FF3EE6D10023A7F8543187F8F2
:10661000403187F8413187F8423187F84E31594887
:106620004FF4005104F0CAF840B997F84E3138469B
:1066300083F0010387F84E31FFF7AAF93846FFF7D8
:106640009BFC3846002197F84121FFF721FD384691
:10665000012197F84221FFF71BFD002304240920A4
:106660000E21142287F85B3187F8723187F8713177
:1066700087F8744187F8734187F8760187F87501C8
:1066800087F8781187F8771187F87A2187F87921C8
:10669000BDE8F88F7145B1D197F8451197F84331AE
:1066A00097F844010EF1010E082287F84211A7F86D
:1066B00054E187F8403187F8410107F5A371002ABA
:1066C00048D1023BDBB2012BA9D84FF4807328F8E4
:1066D000023BC145F9D100230BF8013BD345FAD168
:1066E0002B4C1E4604F51E6A3D4695F85C3104EBC2
:1066F00006091B02A9F84230A26E254BD1073AD5F4
:10670000521052F803E0596ED0185EF80130DFF8ED
:10671000808094F8402008F14201984795F8603154
:106720001B02A9F8223AD4F8483ADA071ED55B10C2
:10673000D8F8442A5AF803100AEB030051F802C0B3
:106740000236144994F8202AE047082E05F1010585
:10675000CBD164E707F5AE7004F0EEF997F840315D
:10676000023BDBB2012B3FF65AAFAEE7D8F844CA82
:106770000AEB6300E4E703EB62005B6EC7E700BF70
:106780008824002000100140E8FF0108ECBF010848
:10679000C8100020EA1A002090F870312DE9F04767
:1067A00004461BB14D8845B1BDE8F0874B88032BEB
:1067B000FAD8DFE803F0244E676CD0F86C01FDF7DF
:1067C000BFFC204684F8405184F8415184F842517E
:1067D00084F84E51FFF7DCF82046FFF7CDFB20464A
:1067E000294694F84121FFF753FC2046012194F8F3
:1067F0004221FFF74DFC84F87051BDE8F0874B68EB
:10680000B3F5167F68DC90F84031012B40F2A98186
:1068100003F00103C3F1030380F8403100F11001DC
:1068200000F108034FF4807223F8022B9942F9D14A
:1068300004F2651304F26911002203F8012B8B4264
:10684000FAD12046FFF798FB2046BDE8F047FFF756
:106850009FB890F840314968032B0CBF90F8422153
:1068600090F84121B1F5167F16DD032A2CD9082AAC
:1068700000F28481012B8ABFC21890F8752192F82A
:10688000732113E0002380F82030BDE8F087002357
:1068900080F82130BDE8F087032A11D9082A00F2D8
:1068A00065810132D2B2092A08BF0422991E20460E
:1068B000C9B2FFF7EDFB2046BDE8F047FFF768B827
:1068C000013202F00302F1E7012B8ABFC21890F8EF
:1068D000732192F87121E9E790F84231C94F90F89D
:1068E0004011C94D17F813E00231BEF1020A01F060
:1068F000030195F8C02080F8401180F84131DAF1A9
:10690000000085F841E050EB0A00CAB9C0B1C5F8F3
:10691000902105F1C80305F5A471002243F8042B6A
:106920008B42FAD103F12401002243F8042B8B425D
:10693000FAD103F12401002243F8042B8B42FAD14F
:10694000BEF1160671427141BEF1180CDCF1000275
:1069500052EB0C0295F8DC38BEF11909D9F10008A8
:1069600085F8421885F8C00085F88E28A64958EBAE
:106970000908DBB9B8F1000F18D0C1F8AC3901F63D
:10698000E40301F66411002243F8042B8B42FAD190
:1069900003F12401002243F8042B8B42FAD103F1C6
:1069A0002401002243F8042B8B42FAD1974EDFF8E2
:1069B00058A206EB4E190AF14C0CB9E80F00ACE8EE
:1069C0000F0099E80F00BEF1020F85F8DC888CE813
:1069D0000F000CD0BEF1190F09D0DAF85030D807EB
:1069E00000F1E280DAF84C200AEB63009047AA6ECF
:1069F000854BD10740F1D180521052F803E0596E17
:106A0000D0185EF80130DFF8008295F8402008F1D8
:106A10004201984794F8412195F8A03A07EB4207C4
:106A20007F78BA1E504285F8217A5041CBB9C0B167
:106A3000C8F8703B08F6283108F6A823002243F86E
:106A4000042B8B42FAD103F12401002243F8042BDA
:106A50008B42FAD103F12401002243F8042B8B422C
:106A6000FAD1B7F11608D8F1000C5CEB080CB7F1BD
:106A7000180941F2BC23D9F10001EA5C51EB09018C
:106A800041F2222EB7F1190A41F26E2305F80EC029
:106A9000DAF1000C85F8A00AE9545B485CEB0A0CBB
:106AA000E2B9BCF1000F19D0594B41F28C3E03F111
:106AB000800140F80E20002243F8042B8B42FAD1CB
:106AC00003F12401002243F8042B8B42FAD103F195
:106AD0002401002243F8042B8B42FAD1DFF82881ED
:106AE00006EB471608F62C2E0FCEAEE80F0096E800
:106AF0000F00022F41F2BC268EE80F0005F806C0F9
:106B00004FD0192F4DD0D8F8303AD80755D408F5C2
:106B10001E66D8F82C2A06EB63009047D5F8483A51
:106B2000394AD90734D55B10D2F8442AF158F01805
:106B30008F58384995F8202AB84704F1080304F122
:106B400010014FF4807223F8022B9942F9D104F21C
:106B5000651304F26911002203F8012B8B42FAD16C
:106B60006FE6C3F1010380F840316AE60D2A2DD8A3
:106B70000132D2B20E2A08BF092297E60D2A2DD87B
:106B8000012B8ABFC21890F8772192F875218DE603
:106B9000D2F8447A06EB6300CBE703EB62005B6E4E
:106BA00031E708F51E66B9E75B1053F80A10DAF80A
:106BB0004C2003EB0A008A5818E75B1008F51E66A4
:106BC000D8F82C2AF158F0188A58A6E7132A0FD8BB
:106BD0000132D2B2142A08BF0E2267E6132A1BD84C
:106BE000012B8ABFC21890F8792192F877215DE6CF
:106BF000162A3FF65BAE0132D2B2172A08BF142222
:106C000054E600BF707B0108C810002098AC000853
:106C10008C230020EA1A0020012B8ABFC21890F8AA
:106C2000712192F86F2141E62DE9F84390F8703117
:106C300004460D46FBB14B884A680344121283F8A0
:106C40005C2190F85D3190F85C21803B5B10803ACC
:106C500003EBC202D0F86C3152421A8090F85F11F7
:106C600090F85E2180394910803A01EBC20252420D
:106C70005A80BDE8F88390F84031032B45D8DFE80F
:106C800003F04679020248889A1EC7B207EB8206D3
:106C9000F6B2264496F85C8149685A4BA8EB212845
:106CA0001FFA88F81FFA88FC4FF41E691CF4004F85
:106CB00009FB023394F84E211CBFC8F1000C1FFAE7
:106CC0008CFC42B1204490F8652122B90FFA8CFC6B
:106CD000BCF1020F19DC986E03EB4707C207A7F857
:106CE00042106ED5401019585A6E18448F5893F8B8
:106CF000402003F14201B8476B6801221B1286F85D
:106D00005C316B881C4484F86521BDE8F8833D4EF6
:106D10008A78B06E4B6806EB4202C107A2F8423097
:106D20004BD540108259736E3044D358354F96F886
:106D3000402007F142019847A9786A68D6F8483A96
:106D400006EB4101A1F8222ADA072FD55B1007F5DF
:106D50001E62D7F8441A9F5898187F5896F8202A30
:106D60002949B8476A886B6814441B1284F85C315F
:106D7000BDE8F8834B88234E012B2DD9023B49688F
:106D8000DBB2D6F8482A06EB4303A3F8221AD10750
:106D90001BD506F51E635210D758D6F8441AD018E2
:106DA0007B5896F8202A18499847DBE707F51E60BC
:106DB00000EB6300D7F8447AD0E706EB6000736E0F
:106DC000B4E703EB60005F6E91E706F51E6000EB31
:106DD0006200D6F8443AE4E7B26E496806EB430332
:106DE000D007A3F8421009D552109159736E90192B
:106DF000CB5896F8402005499847B3E706EB620068
:106E0000736EF6E7C8100020EA1A00200A1100206D
:106E10002DE9F041804682B000F59B7704460026BC
:106E20002288238937F8025F99188D42C3EB02024A
:106E300002DA954200DD4BB940466946ADF8026082
:106E40000195FFF7F1FE4023258023810136042EB2
:106E500004F10204E4D102B0BDE8F08130B5D0F80D
:106E60002C21D0F8283183B0D31ADA06044618BF93
:106E70006D4608D12AE022B3D4F82C21D4F8283169
:106E8000D31ADB0622D0D4F8283104EBC30228320F
:106E900092E8030085E803009DF80020013303F029
:106EA0001F03042AC4F82831E5D1019BCBB9BDF8F2
:106EB0000230022B1AD0032BDED1012384F82130BB
:106EC000DAE720466946FFF7AFFED5E7094B626A6D
:106ED00019688A1AB2F57A7F01D91B68636203B018
:106EE00030BD20466946FFF757FCC5E7012384F80B
:106EF0002030C1E7882400202DE9F04393B001241D
:106F000000250F2301A907463C48ADF804308DF851
:106F100006408DF80750DFF8F09003F0F5FB384895
:106F200003F09AFA04264FF4807C4FF4806E2022FE
:106F30004FF40053324807A94FF08008CDF834C011
:106F4000CDF838E00F921093089709950B9511959D
:106F5000CDF81C900A96CDF8308003F0FDFA21465A
:106F6000274803F019FB274803F09CF94FF46022EF
:106F70004FF40063234802A90492059302958DF80B
:106F80000C408DF80D408DF8186003F0C1F92246D1
:106F90001C480321072303F011FA02210A4619486D
:106FA000072303F00BFA214616480322072303F0B8
:106FB00005FA294632461348072303F0FFF9114822
:106FC000214603F0C9F90F4803F0DAF90D4803F040
:106FD000DDF90028FAD10B4803F0DCF9094803F089
:106FE000DFF90028FAD10748012103F0BFF905486D
:106FF000012103F0D9F913B0BDE8F0830008014086
:1070000008000240002401404C240140F0B5224E0B
:1070100087B00746694630464FF480520324102358
:107020001E4DADF800208DF802408DF8033003F0BE
:107030006BFB304669464FF4204218238DF802401E
:10704000ADF8002000248DF80330022603F05CFB2D
:107050004FF4827C4FF4006E4FF4007207232846F1
:1070600001A9ADF806C0ADF808E0ADF80E20ADF806
:107070001430ADF80440ADF80C40ADF81040ADF858
:107080001240ADF80A6003F017FC2846012103F016
:1070900033FC3C7107B0F0BD000C014000380040EB
:1070A00010B54FF480510446154803F091FB144885
:1070B0004FF4805103F08EFB237983B1218811486E
:1070C000091241F4105103F025FC21880D480902F2
:1070D00001F47F4103F01EFC0023237110BD618881
:1070E0000848091241F4805103F014FC61880548F6
:1070F000090201F47F4103F00DFC0123237110BD4F
:10710000000C01400038004070B582B0064601A96D
:107110004FF48053012548240C48ADF804308DF815
:1071200006508DF8074003F0EFFA4FF4006301A911
:107130000748ADF804308DF806508DF8074003F08D
:10714000E3FA0023337002B070BD00BF00080140B5
:10715000000C014010B5084803F036FB80F40064D1
:10716000064803F031FB10F4805FC4F3C0240CBF69
:1071700010200020204310BD000C014000080140F9
:10718000F0B52D4E89B001256946F02310272B4814
:107190002B4CADF800308DF803708DF8025003F0E1
:1071A000B3FA694630464FF480638DF80370ADF84A
:1071B00000308DF8025003F0A7FA032269463046EA
:1071C0001823ADF80020002608278DF803308DF82D
:1071D000025003F099FA3F232046ADF80830ADF88D
:1071E0000470ADF80A60ADF806608DF80C6003F02D
:1071F0004DFC204601A903F08FFB6023204604A923
:10720000ADF81030ADF81250ADF81660ADF818605A
:1072100003F0A6FB2046394603F040FC204604A9B3
:1072200003F0E6FB2046394603F040FC20462946A1
:1072300003F014FC09B0F0BD000C0140000801404F
:107240000004004038B5194DC17804468908284625
:1072500003F036FCA1782846890803F033FC6278F5
:1072600013484FF4806103F0B7FA227805F58235B0
:10727000284602F00102102103F0AEFA22782846D7
:1072800002F00202202103F0A7FA2278284602F039
:107290000402402103F0A0FA2278284602F00802F6
:1072A0008021BDE8384003F097BA00BF00040040D9
:1072B000000C014030B5042283B0FF2103F0A2FC92
:1072C0000125482401A910231148ADF804308DF898
:1072D00006508DF8074003F017FA01A94FF48073A8
:1072E0000C48ADF804308DF806508DF8074003F0D7
:1072F0000BFA4FF4C04301A907488DF806508DF8EA
:107300000740ADF8043003F0FFF903B030BD00BF13
:10731000000C01400008014000100140F8B51021A8
:107320000446C578134803F049FA6D00EDB22843CE
:10733000E0704FF480711048A77803F03FFA7F00A7
:107340000E4DFFB23843A0704FF400512846267806
:1073500003F034FA7600F6B26378304320704FF4CD
:10736000804128465D0003F029FAEDB228436070A1
:10737000F8BD00BF000C01400008014000100140B2
:1073800030B5144685B00D4602F0C4FE2CB14FF066
:1073900000604FF4804102F07BFF44F61D20012184
:1073A00003F066FA44F20200012103F06DFA0120B5
:1073B000014603F051FA0121174803F013FA4FF484
:1073C000404003F03FFA00241448ADF80850ADF8EF
:1073D0000440ADF80A40ADF806408DF80C4003F0CB
:1073E00055FB01A90D4803F097FA01210B4803F062
:1073F00035FB4FF4A06002F009FF19220123684613
:107400008DF801408DF802408DF800208DF8033092
:1074100002F006FF05B030BD00013000002C014035
:1074200070B4084B084A0948F0265A60002580F8D5
:107430002360072401219D600A461C60044870BC3B
:1074400003F01ABB10E000E03F19010000ED00E07E
:10745000002C01402DE9F047002540F6FD7604465A
:1074600005608560C5604561C5610562856205632B
:10747000456346608661C6623C3000F00BFB40F617
:107480000C5A01234FF030094FF440684FF0C00C04
:107490004FF4786747F281704FF44851FF2225601E
:1074A000E6626566C4F804A0C4F81490C4F81880B5
:1074B000C4F828C0E765A4F840002166626484F837
:1074C000583084F83C30BDE8F08700BF2DE9F84F14
:1074D000002540F6FD76044605608560C56045617F
:1074E000C561056285620563456346608661C66263
:1074F0003C3000F0CFFA40F60C5B01234FF0300A2D
:107500004FF440694FF0C0084FF4786C4FF40047D7
:1075100047F281704FF44851FF222560E662A4F8DB
:107520006E506566C4F804B0C4F814A0C4F818908E
:10753000C4F82880C4F85CC06767A4F840002166DE
:10754000626484F8583084F83C30BDE8F88F00BF9E
:1075500000224FF0FF33426102828361C3617047B2
:107560002DE9F0078B1307783E4D3F4C1B01002F90
:107570000CBF2F46274603F1100903F1080803F159
:10758000180C8900B944B844BC4483B01F4489B284
:107590000023FE5A38F8035039F803403CF803A0A2
:1075A000A41BC5EB0A0A01FB04F401FB0AFA06EB73
:1075B000244405EB2A45A4B2ADB22D1B02FB05F510
:1075C00004EB25442DF803400233082BE1D1BDF82C
:1075D0000030B3F5804F2CD84FF480624280BDF864
:1075E0000420BDF8021003EBC3039D095410891059
:1075F0009210BDF8063002F5005201EB410105F58D
:107600004065C1F38D0104F5804442811A048580F0
:10761000C180048116D4C3F5FF437F3303FB03F31A
:107620000022C3F38F338281C38103B0BDE8F0072A
:107630007047B3F5004F9ABF1A11C2F500620022DD
:107640004280CCE7A3F5004303FB03F3C3F34D43B0
:1076500003EB830383810023C38103B0BDE8F007FC
:10766000704700BFF07B0108A07B01082DE9F04FB7
:1076700007890646924C4589381200F101082B1201
:1076800054F8200054F8288003F1010CC8EB0008DE
:1076900054F82330FFB254F82C4089B007FB08F9A6
:1076A00007931C1BEDB2736A05FB04FC0693B389B8
:1076B000A0EB192907980493F389A0EB1C2CCDF8B3
:1076C0000C907769D6F81880F569346A05938A4674
:1076D0009346CDF81CC04FF00709C6E0F788DDF8E7
:1076E0001C80C7EB8737774C3F140025764B9C42B4
:1076F00098BF4FF0FF3419F0030F38D1734B4FEAA6
:107700001862A3F1020C3CF8121033F81200220E9A
:1077100033F812303CF81220401AC8F30F2E0EFB3B
:1077200000F09B1AC4F30F2E0EFB03F301EB104184
:1077300002EB134289B2F08892B2C1F57F41FF316A
:10774000C2F57F43B6F802C000FB01F2FF33B6F981
:1077500010E00CFB03F3B08800EBAE1000EB12421C
:1077600002EBD33109B2304610F096FA0690069833
:1077700057490744BA0D31F81230881C30F912C04D
:107780001AB2C2EB0C02C7F38F1C0CFB02FC03EB1A
:107790002C4C049B1FFA8CFCCBB14E494E4B086815
:1077A0000FFA8CFCCDF804C003FB00FC4B4B049893
:1077B00063444FEA234CC0F57F420CFB00F0DDF838
:1077C00004C0FF3202FB0C020B604FEA124C039A1A
:1077D000AD1861D2290E49008A1CC5F30F23404819
:1077E0000FFA8CFC415A825A521A03FB02F201EB47
:1077F00012439BB2C3F57F43FF330CFB03F30599A0
:107800001B0C09B31BB2190401F10041DFF8D4C00D
:10781000880D3CF810200CF1020C3CF9100089098D
:107820000FFA82FCCCEB000089B201FB00F002EB06
:107830002042059812B202FB00F2C0F57F4C0CF119
:10784000FF0C0CFB03231B0CDBF8242009F1FF3990
:10785000511C5FFA89F901F00F01B9F1FF0F338272
:107860002BF81230CBF824101FD0DAF810305A1C45
:107870001AF8033002F00F029B07CAF810203FF5F8
:107880002DAF079A04F1441418EB020804F588445C
:1078900028BF4FF0FF3829E74FF6FF734FF400720F
:1078A0004FF4FF714FF0FF3599E7069B7761C6F8FB
:1078B0001880F5613462736209B0BDE8F08F00BFD3
:1078C000C04D01084444440043444400CA590108DF
:1078D000D05D01082C0D00200D6619005FF36E3C91
:1078E000C8590108DC6B010838B504464FF45255FD
:1078F00000F0D0F80023012245F6C05040F6FD719B
:107900006580A0806162227022772362A362E362B5
:1079100038BD00BF2DE9F84330220446002340F66D
:10792000FD714FF4C0664FF440654FF496602164DA
:107930002360A360E360E361236223636363E36323
:107940006364A3646261A2626660A561E06204F19F
:10795000500000F09FF804F1700000F09BF804F173
:10796000900000F097F84FF4FA69012345F2F052C5
:107970004FF4844847F2485C46F6843740F6FE767A
:107980004FF4D0554FF400504FF44851A4F8949060
:10799000A4F8B880A4F854C0A4F874702664A4F8BD
:1079A0005250A4F87200A4F8921084F8AC3084F815
:1079B000503084F8703084F89030C4F8B020C4F8A7
:1079C000B420BDE8F88300BF2DE9F84F4FF496616D
:1079D00004460025302340F6FD724FF4C0664FF494
:1079E0004060E16222646361A3626660A061256019
:1079F00004F15000A560E560E561256225636563DB
:107A0000E5636564A56400F045F804F1700000F0DA
:107A100041F804F1900000F03DF84FF400410123DB
:107A200045F2F0524FF4FA6B4FF4844A47F248594A
:107A300046F6843840F6FE7C4FF4D0574FF400569B
:107A40004FF44850A4F8C8104FF6FF71A4F8C45082
:107A5000A4F8C650A4F894B0A4F8B8A0A4F8549020
:107A6000A4F87480C4F840C0A4F85270A4F87260FE
:107A7000A4F89200C4F8C01084F8AC3084F85030F8
:107A800084F8703084F89030C4F8B020C4F8B42082
:107A9000BDE8F88F002310B401224FF484544FF452
:107AA00080414480818043618361836002700277FA
:107AB0005DF8044B704700BFD0F8E420F0B42D4CC3
:107AC000930D34F81310023434F913400BB2E41A56
:107AD000C2F38F1303FB04F4B0F9043001EB24412B
:107AE00089B2002B8CB224DDC3EB4310C3EBC02062
:107AF000C01324B200F5006000FB04F01E4E00F13C
:107B00000040850D36F81520023636F9156015B29D
:107B1000751BC0F38F1000FB05F002EB204212B280
:107B2000141B03FB04F3F0BC01EBE33188B200B299
:107B3000704712F1804254BF52006FEA42020F4F69
:107B4000960D37F81650023737F9166028B2301AFA
:107B5000C2F38F1202FB00F205EB22452DB224B2D4
:107B60002C1B5B4203FB04F3F0BC01EBE33188B256
:107B700000B27047D05D0108D8AF0008C4510108B9
:107B80008388B0F8FC2030B4934233D0A3F5004290
:107B900092B2012A31D94FF00061C2F5803591FBD4
:107BA000F2F491FBF5F1C0F8F840C0F8F4101204BB
:107BB000C0F8F020A0F8FC30D0F8E430934210D2A6
:107BC000D0F8F8201B0B02FB03F330BCD80B002BC2
:107BD000B6BFC0F5FF40A0F500407F3080B200B2D4
:107BE00070479B1AD0F8F4101B0B01FB03F303F151
:107BF0000043EAE7D0F8F020DEE74FF000644FF4EE
:107C00000061C0F8F840C0F8F410D0E7B0F90420E3
:107C1000D0F8E83002F5004212045B009A4204D327
:107C2000D1438B428CBFDB431346D0F8E40048F2CB
:107C3000010147F6FF72834294BF0846104600B226
:107C4000704700BFB0F90430D0F8E42003F50043DA
:107C5000C3EB03131B1402339BB24FF6FF70002AD1
:107C600003F1FF3190FBF1F1ACBF50006FEA42002D
:107C7000000C03FB00F089B2000C00FB01F0A0F542
:107C8000004000B2704700BFD0F8E420D0F8E81000
:107C9000F0B48A42D0F80051D0F804312AD31C46FF
:107CA0002B46E41A550C05FB04F5B0F90410ED134E
:107CB000002905EB03002BDB1B4E170EB51C35F816
:107CC00017C036F81750C2F30F22C5EB0C0602FBA3
:107CD00006F205EB1245C5F34E0505FB04F403EB74
:107CE000E4331B1A01FB03F1F0BC00EBE13080B27E
:107CF00000B270470D4D0E4E2C680E4906FB04F481
:107D000021440C14C0F800312960C0F80441C8E7D0
:107D100001F5FF417F3101FB05F1F0BC03EBE133DD
:107D200098B200B2704700BF647501082C0D0020A6
:107D30000D6619005FF36E3C0269F0B42D4C930D93
:107D400034F81310023434F913400BB2E41AC2F3BE
:107D50008F1303FB04F4B0F9043001EB244189B222
:107D6000002B8CB224DDC3EB4310C3EBC020C01347
:107D700024B200F5006000FB04F01F4E00F100404B
:107D8000850D36F81520023636F9156015B2751BCB
:107D9000C0F38F1000FB05F002EB204212B2141B5F
:107DA00003FB04F3F0BC01EBE33188B200B270478F
:107DB00012F1804254BF52006FEA42020F4F960DFB
:107DC00037F81650023737F9166028B2301AC2F366
:107DD0008F1202FB00F205EB22452DB224B22C1BC0
:107DE0005B4203FB04F3F0BC01EBE33188B200B269
:107DF000704700BFD05D0108D8AF0008C45101082A
:107E00008388B0F8402030B493422DD0A3F50042CF
:107E100092B2012A2AD94FF00061C2F5803591FB58
:107E2000F2F491FBF5F1C463816312044263A0F89C
:107E30004030036993420FD2C26B1B0B02FB03F36A
:107E400030BCD80B002BB6BFC0F5FF40A0F50040FA
:107E50007F3080B200B270479B1A816B1B0B01FB15
:107E600003F303F10043EBE7426BE2E74FF00064FA
:107E70004FF40061C4638163D7E700BFB0F9042009
:107E8000436902F5004212045B009A4204D3D143D5
:107E90008B428CBFDB431346006948F2010147F671
:107EA000FF72834294BF0846104600B2704700BF7D
:107EB000B0F90430026903F50043C3EB03131B144C
:107EC00002339BB24FF6FF70002A03F1FF3190FBA3
:107ED000F1F1ACBF50006FEA4200000C03FB00F070
:107EE00089B2000C00FB01F0A0F5004000B2704721
:107EF00002694169F0B48A42456C836C2AD31C46FE
:107F00002B46E41A550C05FB04F5B0F90410ED13EB
:107F1000002905EB030029DD1A4E170EB51C35F8B4
:107F200017C036F81750C2F30F22C5EB0C0602FB40
:107F300006F205EB1245C5F34E0505FB04F403EB11
:107F4000E4331B1A01FB03F1F0BC00EBE13080B21B
:107F500000B270470C4D0D4E2C680D4906FB04F421
:107F600021440C14436429608464CAE701F5FF418D
:107F70007F3101FB05F1F0BC03EBE13398B200B2B5
:107F8000704700BF647501082C0D00200D661900B4
:107F90005FF36E3C836A70B41C4C9A0D34F8121077
:107FA000023434F912400AB2C3F38F13A21A03FB4E
:107FB00002F2B0F9043001EB2242C3EB4314C3EBED
:107FC000C42492B2E41311B204F5006404FB01F47A
:107FD0000F4E04F10044A50D36F81500023636F9AF
:107FE000156005B2751BC4F38F1404FB05F403F58B
:107FF000FF4300EB244000B27F33411A5B1003FBC8
:1080000001F370BC02EBE33000B27047D05D0108B1
:10801000D8AF0008836A1B499A0D70B431F812403A
:10802000023131F9121022B2891AC3F38F1202FB06
:1080300001F113F1804354BF5B006FEA4303124D1B
:1080400004EB21419C0DB0F9042035F814000235F1
:1080500035F9145004B22C1BC3F38F1303FB04F344
:1080600089B202F5FF4200EB23400EB27F3200B22C
:10807000801B521002FB00F270BC01EBE23000B238
:10808000704700BFD05D0108C4510108836A70B415
:108090001C4C9A0D34F81210023434F912400AB212
:1080A000C3F38F13A21A03FB02F2B0F9043001EB01
:1080B0002242C3EB4314C3EBC42492B2E41311B2C3
:1080C00004F5006404FB01F40F4E04F10044A50D17
:1080D00036F81500023636F9156005B2751BC4F383
:1080E0008F1404FB05F403F5FF4300EB244000B2BA
:1080F0007F33411A5B1003FB01F370BC02EBE330EA
:1081000000B27047D05D0108DC6B01088388B0F8CD
:10811000402030B493422DD0A3F5004292B2012A00
:108120002AD94FF00061C2F5803591FBF2F491FB42
:10813000F5F1C463816312044263A0F84030836A9E
:1081400093420FD2C26B1B0B02FB03F330BCD80B64
:10815000002BB6BFC0F5FF40A0F500407F3080B2D5
:1081600000B270479B1A816B1B0B01FB03F303F1F9
:108170000043EBE7426BE2E74FF000644FF400612D
:10818000C4638163D7E700BFB0F90420C36A02F576
:10819000004212045B009A4204D3D1438B428CBF4D
:1081A000DB431346806A48F2010147F6FF728342BF
:1081B00094BF0846104600B2704700BF826AC16A89
:1081C000F0B48A42456C836C2AD31C462B46E41AD1
:1081D000550C05FB04F5B0F90410ED13002905EB6F
:1081E000030029DD1A4E170EB51C35F817C036F8F6
:1081F0001750C2F30F22C5EB0C0602FB06F205EB8B
:108200001245C5F34E0505FB04F403EBE4331B1ADA
:1082100001FB03F1F0BC00EBE13080B200B270472B
:108220000C4D0D4E2C680D4906FB04F421440C1432
:10823000436429608464CAE701F5FF417F3101FB93
:1082400005F1F0BC03EBE13398B200B2704700BF18
:10825000647501082C0D00200D6619005FF36E3C5B
:10826000D0F8F43070B41D4C9A0D34F8121002346A
:1082700034F912400AB2C3F38F13A21A03FB02F2BD
:10828000B0F9043001EB2242C3EB4314C3EBC42426
:1082900092B2E41311B204F5006404FB01F4104E31
:1082A00004F10044A50D36F81500023636F91560C4
:1082B00005B2751BC4F38F1404FB05F403F5FF43EB
:1082C00000EB244000B27F33411A5B1003FB01F343
:1082D00070BC02EBE33000B2704700BFD05D010814
:1082E000D8AF0008D0F8F4301A499A0D70B431F8BC
:1082F0001240023131F9121022B2891AC3F38F12DF
:1083000002FB01F113F1804354BF5B006FEA4303AA
:10831000114D04EB21419C0DB0F9042035F81400F7
:10832000023535F9145004B22C1BC3F38F1303FB31
:1083300004F389B202F5FF4200EB23400EB27F3214
:1083400000B2801B521002FB00F270BC01EBE23065
:1083500000B27047D05D0108C4510108D0F8F43074
:1083600070B41D4C9A0D34F81210023434F91240D6
:108370000AB2C3F38F13A21A03FB02F2B0F904305E
:1083800001EB2242C3EB4314C3EBC42492B2E413C7
:1083900011B204F5006404FB01F4104E04F1004432
:1083A000A50D36F81500023636F9156005B2751BB5
:1083B000C4F38F1404FB05F403F5FF4300EB2440E2
:1083C00000B27F33411A5B1003FB01F370BC02EB78
:1083D000E33000B2704700BFD05D0108DC6B0108DC
:1083E0008388B0F80C2130B4934233D0A3F5004217
:1083F00092B2012A31D94FF00061C2F5803591FB6C
:10840000F2F491FBF5F1C0F80841C0F80411120430
:10841000C0F80021A0F80C31D0F8F430934210D20B
:10842000D0F808211B0B02FB03F330BCD80B002B48
:10843000B6BFC0F5FF40A0F500407F3080B200B26B
:1084400070479B1AD0F804111B0B01FB03F303F1D7
:108450000043EAE7D0F80021DEE74FF000644FF474
:108460000061C0F80841C0F80411D0E7B0F9042059
:10847000D0F8F83002F5004212045B009A4204D3AF
:10848000D1438B428CBFDB431346D0F8F40048F253
:10849000010147F6FF72834294BF0846104600B2BE
:1084A000704700BFD0F8F420D0F8F810F0B48A423A
:1084B000D0F81051D0F814312AD31C462B46E41AB8
:1084C000550C05FB04F5B0F90410ED13002905EB7C
:1084D00003002BDB1B4E170EB51C35F817C036F802
:1084E0001750C2F30F22C5EB0C0602FB06F205EB98
:1084F0001245C5F34E0505FB04F403EBE4331B1AE8
:1085000001FB03F1F0BC00EBE13080B200B2704738
:108510000D4D0E4E2C680E4906FB04F421440C143C
:10852000C0F810312960C0F81441C8E701F5FF41D7
:108530007F3101FB05F1F0BC03EBE13398B200B2EF
:10854000704700BF647501082C0D00200D661900EE
:108550005FF36E3C144910B4002347F6FF72022407
:108560000380838083600374C0F8E030A0F8FC20AF
:10857000C2608470416100F1180300F1980200218B
:1085800043F8041B9A42FAD100F1BC03002142F8DF
:10859000041B9342FAD1E030002243F8042B9842A6
:1085A000FAD15DF8044B704700DC0500090A074B5F
:1085B000C1EBC101091210B403EB810433F821208F
:1085C0006388827083805DF8044B7047407C0108AB
:1085D0002DE9F843037C04460D46164683B902880C
:1085E0005F4B1112481C53F8200053F82130D2B2CF
:1085F000C11A491002FB01F203EBE213C4F8E830A0
:10860000584F4FF0080822E0D4F8E410D4F8E820DE
:10861000A3780A4407EBC3014868C4F8E420C10703
:10862000504A3ED452F8333004EB60009847E26879
:10863000736A02FB00F0591C08F1FF32C01301F00D
:108640000F0112F0FF0826F81300716236D061693D
:108650002B6901316161EA5C013303F00F0390077C
:108660002B61D1D5237C2BB33F4B994220D8B1F558
:10867000F06F25D2D4F8EC30002003EB4302114414
:108680008908994261D04FF0FF32B2FBF1F2C4F891
:10869000EC10C4F8E8200023636158B9D4F8E41062
:1086A000B6E7401052F8333022582044D358BDE783
:1086B00000236361A168D4F8E820A9E7BDE8F88346
:1086C000D4F8E0904FF0000E04EB8903996104F1B7
:1086D000BC00734650F8042BC1EB020C50F8282C58
:1086E000BCF1000FB8BFCCF1000CC2EB0C0CBCF11C
:1086F000000FCCBF02EB6C0C02EBEC0C09F1210279
:10870000D21A02F01F0240F828CC04EB8202FBB11F
:10871000926940F8042C04EB8E02D2F8982062454E
:10872000C8BF9E460133092BD4D104EB8E0EDEF870
:10873000BC10D4F8EC3009F1010202F01F0299429A
:10874000C4F8E0204FF001009DD1D4F8E820A2E762
:10875000D4F8BC200A445210C4F8BC20DBE700BFA8
:10876000D8670108800C0020FFDB0500002347F6D6
:10877000FF7202218170038083808360038383837F
:1087800003628385A0F84020C2607047090A074B46
:10879000C1EBC101091210B403EB810433F82120AD
:1087A0006388827083805DF8044B7047407C0108C9
:1087B0003B49436AF0B490F82E409A0D8D1C31F875
:1087C000121035F81220002C39D0816AC46C8B420B
:1087D000026D28D316462246324C1D0EA11C31F8DC
:1087E000157034F81510C3F30F247D1A04FB05F53A
:1087F000846C01EB1541B61AA41A5B0CC1F34E014F
:1088000003FB06F304FB01F402EBE333B0F91C00B5
:1088100002EBE432D21A00FB02F0F0BC03EBE030D2
:1088200080B200B27047204C204E2568204906FBDC
:1088300005F529440E14C26421600665CCE70CB22C
:1088400012B2121BC3F38F1303FB02F3B0F91C2007
:1088500001EB2341C2EB4214C2EBC42489B2E413FE
:108860000BB204F5006404FB03F4124E04F100445F
:10887000A50D36F81500023636F9156005B2751BE0
:10888000C4F38F1404FB05F400EB244000B2C31AB8
:1088900002FB03F2F0BC01EBE23188B200B2704798
:1088A000D05D0108647501082C0D00200D661900CB
:1088B0005FF36E3CD8AF00082DE9F0410446008B11
:1088C000394F03125D1C57F8255057F82330C0B2BA
:1088D000ED1A6D1000FB05F00D4603EBE01309697E
:1088E000A362685C1646820754BF626A226A01313D
:1088F000134401F00F01296120466362FFF758FF1E
:10890000638B228800FB03F083141A44B2F5803F86
:10891000A38543D21312591CD2B257F8233057F80B
:1089200021104FF00808C91A491002FB01F103EBAE
:10893000E1111E4F616115E052F8333004EB600025
:108940009847E268736A02FB00F0591C08F1FF3295
:10895000C01301F00F0112F0FF0826F81300716236
:108960001AD061692B695A1CEB5C02F00F02980760
:108970002A6154BF2269A268A3781144216107EBE0
:10898000C3025068094AC107D6D5401052F83330A7
:1089900022582044D358D3E7BDE8F08137224FF462
:1089A0008071FF23B9E700BFD8670108D80C002009
:1089B000002347F6FF720421817003808380836067
:1089C0000382838283618384A0F84020C260704761
:1089D000090A074BC1EBC101091210B403EB810472
:1089E00033F821206388827083805DF8044B7047E0
:1089F000407C010890F82620F0B4C369002A37D0E3
:108A0000016AC46C8B42026D26D311462246344D56
:108A10001E0EAC1C34F8167035F81640C3F30F2642
:108A20003D1B06FB05F504EB1544891AC4F34E04FF
:108A30005B0C03FB01F304FB01F1F0BC02EBE3333D
:108A4000B0F9140002EBE132D21A00FB02F003EBA2
:108A5000E03080B200B27047224D234E2968234C8B
:108A600006FB01F10C442114C2642C600165CEE7C1
:108A70001F4C9A0D34F81210023434F912400AB225
:108A8000A21AC3F38F1303FB02F3B0F9142001EB16
:108A90002343C2EB4214C2EBC4249BB2E41319B2C9
:108AA00004F5006404FB01F4124E04F10044A50D2A
:108AB00036F81500023636F9156005B2751BC4F399
:108AC0008F1404FB05F400EB244000B2401A02FBB3
:108AD00000F0F0BC03EBE03080B200B2704700BFA2
:108AE000647501082C0D00200D6619005FF36E3CC3
:108AF000D05D0108D8AF00082DE9F0410446008A96
:108B0000344F03125D1C57F8255057F82330C0B27C
:108B1000ED1A6D1000FB05F00D4603EBE01309693B
:108B20002362685C1646820754BFE269A26901317C
:108B3000134401F00F0129612046E361FFF75AFF5A
:108B40002188628A0B1203F1010E57F82EE057F8C4
:108B50002330C9B2C3EB0E077F1001FB07F100FB06
:108B600002F003EBE111020C1B4FA284A280E16230
:108B70004FF0080811E053F8323004EB60009847DA
:108B8000726A08F1FF33511C01F00F0113F0FF0866
:108B900026F8120071621AD0E16A2A69AB5C501C97
:108BA00000F00F02980754BFA36AA3682A61A27855
:108BB0001944A16207EBC2035868074BC107DAD515
:108BC000401053F8323022582044D358D7E7BDE83C
:108BD000F08100BFD8670108500C0020174900231E
:108BE00047F6FF7230B4042501240380838003829A
:108BF0008382C0F8F030A0F80C21C260857080F844
:108C00002040416200F1280300F1A802002143F84E
:108C1000041B9A42FAD100F1CC03002142F8041B54
:108C20009342FAD100F1F001002243F8042B99425B
:108C3000FAD180F8202130BC704700BF00DC05006D
:108C4000090A074BC1EBC101091210B403EB8104FF
:108C500033F821206388827083805DF8044B70476D
:108C6000407C0108A1F5FF417F3941F3423180F892
:108C70002011704782690848910D30F81130023098
:108C800030F9110019B2411AC2F38F1202FB01F23E
:108C900003EB224000B27047D05D01082DE9F84394
:108CA000458A04460E461746D5B1038A5E4A191214
:108CB00001F1010E52F82EE052F82120DBB2C2EB96
:108CC0000E01491003FB01F3816902EBE313194420
:108CD000C3618161FFF7CEFF00FB05F00514A5809D
:108CE000DFF848814FF008091EE0D4F8F810A278A8
:108CF000D4F8F43008EBC20040680B44C107C4F854
:108D0000F4304A4B3BD453F8323004EB60009847C0
:108D10007A6A09F1FF33511C01F00F0113F0FF09CA
:108D200027F81200796234D0606A336901306062DA
:108D3000F25C013303F00F0395073361D5D53C4B4B
:108D4000984223D8B0F5F06F25D2D4F8FC3003EB6D
:108D5000430210448008984218D094F920214FF023
:108D6000FF31002AB1FBF0F1BABF5242D14091402D
:108D7000C4F8FC00C4F8F81000236362B7E74010A1
:108D800053F8323022582044D358C0E7D4F8F810B2
:108D9000F2E7BDE8F883D4F8F0C0002104EB8C03BF
:108DA000986204F1CC050B4655F8042BC0EB020E7B
:108DB00055F8282CBEF1000FB8BFCEF1000EC2EB63
:108DC0000E0EBEF1000FCCBF02EB6E0E02EBEE0EEC
:108DD0000CF12102D21A02F01F0245F828EC04EB34
:108DE0008202CBB1926A45F8042C04EB8102D2F8DE
:108DF000A8207245C8BF19460133092BD4D10CF104
:108E0000010C04EB81010CF01F02D1F8CC00D4F866
:108E1000FC30C4F8F0209EE7D4F8CC200244521075
:108E2000C4F8CC20E1E700BFD8670108A80C0020F7
:108E3000FFDB0500F0B40023032502244FF4804734
:108E40004FF4005647F6FF7101228780468205875E
:108E50000585448780F820400380C3800382C38750
:108E60008387036343634385838580F84030418073
:108E7000818280F8212080F82220F0BC704700BF5A
:108E800001F002032DE9F00303F0FF05002B45D0AC
:108E9000078FB0F92830BB4203D090F84030002B48
:108EA0007DD004880023468F1A46448503850363DA
:108EB0009C461D464FF002084FF00109002E3ED19E
:108EC0009F4240D003F1080130F811603A49361250
:108ED00051F82660034493F82010384B023153F8C0
:108EE000211030F9197031F80C3031F808C021B276
:108EF000C3EB0C0C02FB0CF203EB1243791AC3F325
:108F00004E0303FB01F304EBE334A4B235444663A0
:108F10000563848520B2BDE8F00370474C07468F97
:108F200013D596B1B7B2848D3BB20785078F2A4619
:108F3000056303F10109AC4644854FF002089E42E7
:108F4000BED1C907BCD50026C4E7056B436B9D4263
:108F500016D2058DC78F2BB201350133ADB230F873
:108F600013402BB20022BB4244850585026318D012
:108F700094461546078F03F101094FF002089DE75B
:108F80004FEA156CB0F928304FEA4C0C0CF102088E
:108F900003F10109078F448DC5F30F228EE7848DFD
:108FA00080E7858F078F2BB2058503F10109944671
:108FB00015464FF0020881E7C04D01082C0C002037
:108FC000F0B400230425022147F6FF7201244FF478
:108FD00080474FF40056878046820587058580F8D4
:108FE000214080F82340418780F8201080F822102B
:108FF0000380038103828382C38783870363436380
:109000004385838580F840304280C280C282F0BCB4
:10901000704700BF01F002032DE9F00303F0FF05E4
:10902000002B45D0078FB0F92830BB4203D090F811
:109030004030002B7DD004880023468F1A4644859B
:10904000038503639C461D464FF002084FF001095B
:10905000002E3ED19F4240D003F1080130F811604C
:109060003A49361251F82660034493F82010384BE1
:10907000023153F8211030F9197031F80C3031F801
:1090800008C021B2C3EB0C0C02FB0CF203EB124341
:10909000791AC3F34E0303FB01F304EBE334A4B2E8
:1090A000354446630563848520B2BDE8F00370470C
:1090B0004C07468F13D596B1B7B2848D3BB2078566
:1090C000078F2A46056303F10109AC4644854FF03A
:1090D00002089E42BED1C907BCD50026C4E7056B75
:1090E000436B9D4216D2058DC78F2BB201350133DC
:1090F000ADB230F813402BB20022BB424485058547
:10910000026318D094461546078F03F101094FF00A
:1091100002089DE74FEA156CB0F928304FEA4C0C75
:109120000CF1020803F10109078F448DC5F30F22EA
:109130008EE7848D80E7858F078F2BB2058503F13D
:109140000109944615464FF0020881E7C04D010819
:109150002C0C002070B40023032147F6FF74022278
:109160004FF480464FF400558680458244808482C7
:109170000187C187018543870380C380038283877A
:10918000036343634385838580F8403080F8202063
:1091900080F8212080F8222070BC704701F0020383
:1091A0002DE9F00303F0FF05002B45D0078FB0F940
:1091B0002830BB4203D090F84030002B7DD004888B
:1091C0000023468F1A464485038503639C461D464B
:1091D0004FF002084FF00109002E3ED19F4240D0CF
:1091E00003F1080130F811604049361251F8266049
:1091F000034493F820103E4B023153F8211030F90C
:10920000197031F80C3031F808C021B2C3EB0C0CE6
:1092100002FB0CF203EB1243791AC3F34E0303FB78
:1092200001F304EBE334A4B235444663056384855B
:1092300020B2BDE8F00370474C07468F13D596B1B6
:10924000B7B2848D3BB20785078F2A46056303F1C9
:109250000109AC4644854FF002089E42BED1C907C1
:10926000BCD50026C4E7056B436B9D4216D2058D25
:10927000C78F2BB201350133ADB230F813402BB29A
:109280000022BB4244850585026318D094461546EA
:10929000078F03F101094FF002089DE74FEA156CB3
:1092A000B0F928304FEA4C0C0CF1020803F1010927
:1092B000078F448DC5F30F228EE7848D80E711F070
:1092C00001050AD0858F078F2BB2058503F10109AF
:1092D000944615464FF002087EE72A46AC46078FB3
:1092E00003F101094FF0020876E700BFC04D010805
:1092F0002C0C0020F0B40023032402224FF48047FA
:109300004FF40056012547F6FF718780468280F8AA
:1093100022500487048543870380C38003828387A8
:10932000036343634385838580F8403041808182B5
:1093300080F8202080F82120C287F0BC704700BF51
:1093400001F002032DE9F00303F0FF05002B45D0E7
:10935000078FB0F92830BB4203D090F84030002B83
:109360007DD004880023468F1A4644850385036315
:109370009C461D464FF002084FF00109002E3ED1D9
:109380009F4240D003F1080130F811603A4936128B
:1093900051F82660034493F82010384B023153F8FB
:1093A000211030F9197031F80C3031F808C021B2B1
:1093B000C3EB0C0C02FB0CF203EB1243791AC3F360
:1093C0004E0303FB01F304EBE334A4B235444663DC
:1093D0000563848520B2BDE8F00370474C07468FD3
:1093E00013D596B1B7B2848D3BB20785078F2A4655
:1093F000056303F10109AC4644854FF002089E4223
:10940000BED1C907BCD50026C4E7056B436B9D429E
:1094100016D2058DC78F2BB201350133ADB230F8AE
:1094200013402BB20022BB4244850585026318D04D
:1094300094461546078F03F101094FF002089DE796
:109440004FEA156CB0F928304FEA4C0C0CF10208C9
:1094500003F10109078F448DC5F30F228EE7848D38
:1094600080E7858F078F2BB2058503F101099446AC
:1094700015464FF0020881E7C04D01082C0C002072
:1094800030B40023022247F6FF7401254FF4005147
:1094900080F8415044824480A0F8582080F8402051
:1094A000A0F84820A0F85A30A0F86230A0F8643044
:1094B000038283820380838003840386A0F85E3066
:1094C000A0F85C3003654365A0F84A30A0F84C3042
:1094D00080F860304184418630BC704701F002035F
:1094E0002DE9F00303F0FF05002B69D0B0F858C058
:1094F000B0F94830634504D090F86030002B00F09C
:10950000B0800488604E614D3268614B05FB02F209
:10951000B0F8627013441A0CB0F8648007FB02F7CD
:1095200008FB02F2B0F91250B0F82280A5EB5747C1
:10953000A8EB524827EAE7770025336028EAE87865
:10954000BFB2B0F85A60A0F832802A46A0F84A406C
:109550004780A0F848500565A9462B464FF0020801
:10956000002E45D19C4547D003F1180130F8116019
:109570004849361251F82660034493F84010464B90
:10958000023153F821103FB231F8093031F808C0E8
:1095900021B2C3EB0C0C02FB0CF203EB12437F1A5B
:1095A000C3F34E0303FB07F304EBE334A4B23544E7
:1095B00046650565A0F84C4020B2BDE8F003704751
:1095C0004C07B0F85A6019D5C6B1B7B23BB203F137
:1095D000010CB0F84C40A0F8487030F81C70B0F89E
:1095E00058C02A460565A946A0F84A404FF002082F
:1095F0009E42B7D1C907B5D50026BDE7056D436DBD
:109600009D421CD2B0F84850B0F85E702BB20135C4
:109610000133ADB230F813402BB20022BB42A0F8A8
:109620004A40A0F8485002651ED05F1C914615467E
:1096300030F81770B0F858C04FF0020890E7B0F952
:1096400048304FEA15695A1C4FEA490930F8127040
:1096500009F10208B0F858C0B0F84A40C5F30F222B
:109660007EE7B0F84C404DE7B0F85C50B0F858C019
:109670002BB25F1C30F817709146A0F848504FF09D
:10968000020815466CE700BF2C0D00200D6619007E
:109690005FF36E3CC04D01082C0C002047F6A6720B
:1096A0000023028042808280C360C38003747047BD
:1096B0002DE9F00F0788C388C7F57F47FF37C7F349
:1096C000CF275B13002FB0F804C0B0F8028082B03F
:1096D000037408BF01270226002504230C69013BFF
:1096E00004F101090C5D09F00F09A407C1F81090FD
:1096F00002D50024C460846013F0FF03EED1C36878
:109700000133B3FBF7F407FB1434C36083680CB96F
:1097100001338360047C062C00F2E080DFE804F073
:10972000C5AFA1826F3B04004FEAAC244FEA840925
:10973000B3FBF9F903FA09F9240923FA04FADFF86B
:10974000C4B14FEA68240194ABFB034B4FEA9B2B57
:1097500003FB0BF3019C0134B3FBF4FB04FB1B3351
:109760004B442AFA03F35D40654B9D4272DA1D4675
:1097700048F20104536A013E03F1010909F00F099F
:1097800016F0FF0622F81340C2F82490A5D102B0CB
:10979000BDE8F00F70474FEA6C244FEA541923FAE2
:1097A00009FB4FF4FA7505FB04F5DFF85CA104FB37
:1097B0000BF4AAFB05BA4FEA9A0A0AEB8A0B4FEAA6
:1097C000E82ACBEB05050AF2D44AB3FBF5F5B3FB67
:1097D000FAFA0AF07F0A0135B3FBF5F50AEA040448
:1097E000B5FBF4FA04FB1A5523FA05F5B3FBF3F3C2
:1097F00025FA09F923FA04F409EB0405B4E7013367
:109800004FEA2C3423FA04F484F00105013C65404E
:109810004FEA2834B5FBF4F904FB1955836003FBC8
:1098200005F5A1E74FEAE82423FA04F44FEA6C2592
:10983000B3FBF5F905FB19351C4303EB830949EA32
:10984000932904EB840409EA44046B4044EA0305C9
:109850002D02ADB2B5F5004F50DB47F6FF752C4633
:1098600088E74FEA283423FA04F44FEA2C3523FA28
:1098700005F5234005FB03F52D02ADB2EAE74FEAFB
:10988000E82909FB03F94FEAEC2404FB03F403EB9A
:10989000830509EA131905EAD31545EA090504EA1F
:1098A00093231D432D02ADB2D4E74FEA682A0AFB89
:1098B00003FA1C0A4FEA6C2505FB04F403EB83054D
:1098C00003EB43096D004AEA090905F0800509EA3E
:1098D000932325401D432D02ADB2BBE7B3FBFCF43F
:1098E0000CFB14340133B3FBF4F504FB153403EA29
:1098F00058252D1B836085EAD31535E7ACB239E7CF
:109900000180FFFF91718325CDCCCCCC70B50025B3
:109910000446058585613C30FEF7BCF801264FF40E
:1099200070524FF47A53E287A4F8403084F85850CC
:1099300084F83C6004F15C00FEF7ACF84FF40C5185
:109940004FF4FA52022384F85C6025636563A4F83F
:109950005E10A4F8602084F8783070BD2DE9F04FD7
:10996000044690F8380087B00D461646002800F0EF
:10997000E48163880593DFF84093C549D9F8002056
:10998000C44B01FB02F162690B4419149142C9F8FE
:10999000003040F3CD81891A02EB6132626104F13B
:1099A0003C0704F15C0C02230197CDF808C0039337
:1099B000D9F800104FF004082B695A1CEB5C02F038
:1099C0000F022A619A0722D5B14FB24A07FB01F173
:1099D000A7880A44110C8F420ED9C1F387010028D1
:1099E00000F04A81AC4FA7FB01C7FF0807EB8707D0
:1099F000A1EB4701C9B22174002800F03881A74FBC
:109A000094F810E0114657F82E201204A261DB07EB
:109A100040F11E81228D13B2C3F5FF437F3302EB69
:109A2000A313238508F1FF3818F0FF08C4D1C9F843
:109A30000010002800F04481217C984B0131A2697C
:109A400053F82110130C8B4280F06B81944803EB88
:109A5000430103EB8101C71803EB810197F801E093
:109A6000C9B2C35C01F135078EEA07004B40C0B2B2
:109A7000C11A1FFA82F808FB01F84FEA282808EB00
:109A80000328A8F5E04383F4AB63059F83F002034A
:109A9000A8F500483A440121C3EB0803D4F82CE0B0
:109AA000A261049384F83910D9F80030784A7949D2
:109AB00002FB03F3E76919447A4B606A7A4A4FEA7A
:109AC000214C3B44C9F8001078490244D4F80CA05A
:109AD000980D31F810104FEAEA1BCBF5FF4B0091BF
